S01900004D6F634B686F614C65645472616954696D2E737265639A
S113000009C05EC115C014C013C012C011C010C015
S11300100FC00EC011241FBECFE9CDBF20E0A0E663
S1130020B0E001C01D92A236B207E1F7A3D1D2C15C
S1130030E7CF20E030E0E0E8F0E0682F70E0AF01C7
S1130040022E02C0559547950A94E2F7462357239A
S1130050452B19F098B3916002C098B39E7F98BB6A
S1130060C398C39A2F5F3F4F2830310541F7C49896
S1130070C49A0895CF93DF93D82FC0E68D2FD9DF8C
S1130080D0952FEF87E592E0215080409040E1F732
S113009000C00000C15091F7DF91CF9108956F9295
S11300A07F928F929F92AF92BF92CF92DF92EF9204
S11300B0FF920F931F93CF93DF93982E0F2EF9E0A7
S11300C0EF2EF12CF02DA12C80E0612C712C00E896
S11300D010E0882483942DC0C62CD72CB12CA9DF22
S11300E0992049F021E0C21AD108882D01C0880F57
S11300F0CA94EAF709C031E0C31AD108C80102C0A2
S113010095958795CA94E2F78A299FEF26E731E00F
S1130110915020403040E1F700C00000B394CB2C54
S1130120D12CCC16DD06DCF291E0E91AF10831F0AD
S1130130A82EE7011E141F047CF2F6CFDF91CF91A5
S11301401F910F91FF90EF90DF90CF90BF90AF90F1
S11301509F908F907F906F900895BF92CF92DF927F
S1130160EF92FF920F931F93CF93DF93662379F15E
S1130170B22EC42E6150062F10E0CFEFDFEFD12C4A
S1130180E82EF12CC11003C08D2D809501C08D2D5A
S113019050DFBB2039F08E2D0C2E01C0880F0A943D
S11301A0EAF707C0C7010C2E02C0959587950A94FB
S11301B0E2F7D82A8FEF96E721E081509040204063
S11301C0E1F700C000002196C017D107D9F6DF91EE
S11301D0CF911F910F91FF90EF90DF90CF90BF9040
S11301E008959F92AF92BF92CF92DF92EF92FF92C7
S11301F00F931F93CF93DF93982E0F2EFDEFAF2E07
S1130200BB24BA94F02D0EEF1FEFCFEFDFEF80E0A9
S11302106894CC24C7F8D12CEE24E394F12C09DFA4
S11302209920C1F0C701002E02C0880F991F0A94BB
S1130230E2F7A7010C2E02C0440F551F0A94E2F7FF
S1130240842BA7010A2C02C0440F551F0A94E2F71D
S1130250842B17C0C601002E02C0959587950A9479
S1130260E2F7A6010C2E02C0559547950A94E2F7D1
S1130270842B96010A2C02C0359527950A94E2F73F
S1130280822B9FEF26E731E0915020403040E1F788
S113029000C0000021960F5F1F4F9FEFA91AB90AF3
S11302A0CC30D10509F0BBCFDF91CF911F910F91D5
S11302B0FF90EF90DF90CF90BF90AF909F90089504
S11302C01F920F920FB60F9211242F933F934F93C7
S11302D05F936F937F938F939F93AF93BF93CF93CA
S11302E0EF93FF9362D0837049F481E0D8DE80E01D
S11302F0D6DE81E0D4DE80E0D2DE28C08130C1F4D5
S1130300C4E021E041E06AE081E027DF21E040E051
S11303106AE081E022DF20E041E06AE080E81DDF5E
S113032020E040E06AE080E818DFC15051F70EC0D9
S1130330823041F4C6E081E054DF80E052DFC150F6
S1130340D1F704C0833011F48FEF94DE80E071DEC6
S1130350FF91EF91CF91BF91AF919F918F917F9139
S11303606F915F914F913F912F910F900FBE0F901E
S11303701F9018958DEC9BEA13D089E188BB87BB4D
S11303808BB780648BBF789485B7877E806185BF87
S113039085B7806285BF889585B78F7D85BFF8CF87
S11303A090936100809360000895209160003091E3
S11303B06100C901817099279195819591098827D8
S11303C0947B369527958227932790936100809399
S10B03D060000895F894FFCFCA
S9030000FC
